:020000040000FA
:030000000200C734
:03002B000207A920
:10008300020A3A00000080FBE490F1FF7824790132
:100093008002F0A3D8FCD9FA7A227BF29000D678BA
:1000A3004D79028015E493A3AD82AE838A828B835C
:1000B300F0A3AA82AB838D828E83D8E9D9E7120796
:1000C300B212008675D0007581BF7510FF7511F1EE
:1000D30002008BFFFFFFFF0606060606060400006C
:1000E300DFBE000720425043686970207665727353
:1000F300696F6E20697300746F6F206F6C64207476
:100103006F206265202000737570706F7274656470
:10011300206279202020007468697320736F6674ED
:10012300776172652E2000506C6561736520636F83
:100133006E746163742000796F7572206C6F6361F4
:100143006C20202020200054492073616C657320AB
:100153006F666669636500746F20676574206E65FA
:100163007765722020200063686970732C206F729A
:1001730020676F20746F0074692E636F6D2F737522
:1001830070706F727400746F6F206E657720616E8C
:1001930064206E6F7400506C6561736520646F77C3
:1001A3006E6C6F61640061206E65776572207665A1
:1001B3007273696F6E006F66207468697320202004
:1001C300202020202000736F66747761726520669B
:1001D300726F6D20200074692E636F6D2F6C7077C2
:1001E300202020202000554E535550504F52544547
:1001F30044204348495000200036F246F256F26646
:10020300F276F286F296F2A6F2B6F2C6F236F2D59C
:10021300F256F266F2E5F2F5F205F315F325F36013
:1002230016080808C6C313C618C613C618C613C6CD
:1002330018C613C6D5E0EA22E627F60809E637F61C
:100243000809E637F60809E637F622E026F608A39A
:10025300E036F608A3E036F608A3E036F622600D92
:1002630008C6A2E713C618C613C6D5E0F322700466
:1002730022600D18C6C333C608C633C6D5E0F418CA
:1002830022251010AF08F510400C15118008F51049
:1002930040021511D2AF2200C0D0251010AF08F5CF
:1002A30010500C05118008F51050020511D2AFD083
:1002B300D0222510F582E43511F583222510C5825D
:1002C300C0E0E51134FFC583C0E0E510C395822487
:1002D300F910AF0885831185821080088583118505
:1002E3008210D2AFCEF0A3E520F0A37808E608F0A1
:1002F300A3DEFAEFF0A3E58124FBF8E608F0A3E61A
:1003030008F0A30808E608F0A3E608F0A315811592
:1003130081D0E0FED0E0F815811581E8C0E0EEC0A1
:10032300E022851183851082E0A3FEE0A3F5207807
:1003330008E0A3F608DFFAE0A3FFE0A3C0E0E0A330
:10034300C0E0E0A3C0E0E0A3C0E010AF08858210E6
:100353008583118008858210858311D2AFD083D025
:1003630082224F4C4420434849502056455253273C
:100373004E004F4C442053572056455253494F4E3D
:100383000074F71202BFE9FDEAFCEBFE7508017584
:1003930009007808120271AF08EF42F2C28DED4CEA
:1003A3004EF5B6A28D50FCE5BBF9E5BAF508E9F5C3
:1003B30009EFF452F2EC131313541FFCC3940340DC
:1003C300011C7409C39C7808120261AA08AB097F57
:1003D30002020325C082C083D2F0A28130F001B3B0
:1003E300E433F9A2E05008740AA281500C7900901A
:1003F300F1FFE4F0D083D082221470ED90F1FFE09E
:1004030070067401F0F980EC790080E874F8120248
:10041300BFE9FEE8FF7B067A007980120384EAC312
:1004230033F874816E701890DF37E0C39404401D75
:10043300E8C39410A2D265D033504B7804803C7447
:10044300016E70EC90DF37E0C3940350E3E8C3948C
:1004530010A2D265D03340E3E8C39440A2D265D062
:1004630033402EE8C39450A2D265D0334032E8C360
:100473009460A2D265D03340367800EF687094E878
:10048300F97F01020325E8C39440A2D265D033501B
:1004930004780180E6E8C39460A2D265D0335004A7
:1004A300780280D7E8C39470A2D265D03350CA785B
:1004B3000380C874F41202BF74CE120284EAFEEB06
:1004C300FF8510828511837476F074011202B5E4FE
:1004D300F0E9700974021202B57480800774021285
:1004E30002B574C01205DD1205E5750B0085108297
:1004F3008511837476F074011202B57440F0750CA3
:1005030002800612069D120540850B0812067BF930
:100513006007E50BC3941040EAE50BC39410500A3F
:10052300792012069D12054080EFA90CAA10AB1189
:100533001205E5743212029A7F05020325850C0821
:10054300851082851183E5822508F582E43583F5DC
:1005530083E9F0050C050B2274F81202BF8908EA3F
:10056300FFEBF912069DE9FBEFFAA9081205748067
:100573006474F81202BF74FD120284E9FEEAFF8B71
:1005830008C3941140027F0F85108285118374760E
:10059300F074011202B5E4F0EE7004788080027802
:1005A300C0E82FC0E074021202B5D0E01205DD12DC
:1005B30005E58510828511837476F074011202B506
:1005C3007440F074021202B5E5081205DD1205E568
:1005D300740312029A7F01020325F07903AA10AB78
:1005E300112274F51202BFEAFEEBFF890B750A00B4
:1005F300A29250FCA2A050F843FE04C29212072B11
:100603007900120686802F43FE04C29279011206F6
:100613008612072BE509C333F5091508E508702889
:10062300790012068653FEFB7901120686D33092B7
:1006330001B35009050AE50AC3950B501E850A0844
:1006430012067BF509750808790012068612072B36
:10065300E509A2E750B153FEFB80B1A29240FCA290
:10066300A050F8790012068653FEFB12072B79017E
:100673001206867F04020325EE2508F582E43FF582
:1006830083E022EEC0E0E9700743FF01C2A08003CC
:1006930053FFFE12072BD0E0FE22749F29C3941A46
:1006A300401874BF29C3941A401074E029C39404FA
:1006B300400874DB29C3941B5005748029F922E98F
:1006C30024EF605E24FE605D24EF602F24E4603439
:1006D30024E5603324FE603224FE603124BC6021B3
:1006E30024FC601A24E2603714602E24EE602D246B
:1006F300F3602314601A24EE60192279822279DFD1
:1007030022798122798022798A22795422795A2284
:10071300799D22798C22798F22799C22798B227977
:100723008E227920227930227801E8F974FF291882
:100733000470F72274F11202BFE9FA60578A82AC9F
:10074300828C0875090074077808120271F50AF59E
:100753000BEC75F03BA4FCA8F0E4288C0CF50D33EE
:1007630095E0F50EF50F7808790C12023BE5C654B7
:1007730003780812022285080C85090D850A0E8567
:100783000B0F90F222780812024EE50C450D450E30
:10079300450F70E27F08020325C2C753A1FE43A1A0
:1007A30010D2ADD2AF22C2C753A1FE53BEFC3274E6
:1007B300FD120284E5D5C0E074021202B5D0E0F068
:1007C300E5D4C0E074011202B5D0E0F053F4F6D2E0
:1007D30090D29343FE0943F28012079CC29053BE0A
:1007E300FB53C68043BE0475B47375B52F75B4430C
:1007F300E5B460FC7901120737E5BA90F21AF0E527
:10080300BB90F219F075B47375B53E75B443E5B496
:10081300A2E750FAE5BA90F21CF0E5BB90F21BF0A8
:10082300790112073775BA0075BB00120B1A90DFF6
:100833002F740BF090DF317406F090DF02740DF02B
:10084300A37404F0A37445120A2A7429F0A3740A4A
:10085300120A2A745DF0A37413F0A374B1F0A374A5
:100863002DF0A3743BF0A37473F0A37422F0A3746C
:10087300F8F0A3E4F090DF1A74B6F0A37410F090CC
:10088300DF137430F0A37414F0A3741DF0A314F0F9
:10089300A374C7120A2A74B2F090DF1C74EAF0A39F
:1008A300740AF090DF1F7411F090DF237488F0A3B3
:1008B3007431F0A3740BF090DF2E74FEF090F218F5
:1008C300E054F0F090F2177413F074F290F211F018
:1008D300A37400F0A374DFF0A374D9F0A37420F021
:1008E300A3740EF090F2187440F074F2F5D575D439
:1008F30011439A01759110D2AF90F200740DF07903
:100903000A120737A3745AF0A374C2F0A3740FF04A
:10091300A374A1120A2A7403F0A374F5F090F21AD7
:10092300E090F208F090F219E090F209F0A3E4F0FD
:1009330090F21CE090F20BF090F21BE090F20CF0BE
:10094300A374AAF043D60175E10390F210E060FAB4
:10095300E4F0790512073753BEFBE5BEA2E550FA72
:10096300E5C654F84441F5C6E5C6A2E650FA43BECF
:100973000453C67F90F21D7410F0A37427120A2A41
:10098300F0D290E5D5C0E074021202B5D0E0F0E5F4
:10099300D4C0E074011202B5D0E0F043D68174F202
:1009A30090F22DF0A37426F074F2F5D575D42D755D
:1009B300D60143A205E5A5851082851183F0120AAD
:1009C300307001E960F8E5A5F0120A307001E960C2
:1009D300F890F235E0F5A490F221E0F5A3E5A585C2
:1009E3001082851183F0120A307001E960F843C761
:1009F3000275BE06000000E5BE5403600875D7010A
:100A0300004387010053C7FD74021202B5E0F5D518
:100A130074011202B5E0F5D475D601E5BEA2E55026
:100A2300FA53C67F0207DFF0A3E4F0A322E0F83312
:100A330095E0F9E5A56822C0E0C0D0C082C0835329
:100A4300E9EF539BFC90F2107401F0D083D082D075
:100A5300D0D0E03274F11202BF8A0E8B0F890D8C55
:100A630008750901750C00ECC3950D401974FF2935
:100A7300F50880127E137A0F790012055BEEFB7A7C
:100A83000F790112055B1203D7E96005A908020B70
:100A9300AC90DF36E0F912040FE9F8850D0AE50A98
:100AA30024FFFEE434FFFFE50C686028880CE8248B
:100AB300FD600514600A801CE50860181508801A9B
:100AC30085080AC3E50A9EE49FA2D265D033500489
:100AD30005088006E509A2E050AC75090085088287
:100AE30085820AA80AE828F8E433F9E50E28F58296
:100AF300E50F39F583E0FAA3E0FB79011204B6E5CB
:100B03000870047B2080027B12EE650A4F600302AB
:100B13000A777E20020A79C082C08390DF36E064C0
:100B2300017007A3E0C39403400F90DF36E06481B4
:100B3300701DA3E0C3940450167A657B03790012F9
:100B430004B67C00790A7A487BF3120A5780F39043
:100B5300DF36E064017007A3E0C39404500F90DF15
:100B630036E06481701DA3E0C3940540167A757B5B
:100B73000379001204B67C0079097A5C7BF3120ACC
:100B83005780F390DF36E064016019E064816014FC
:100B93007A357BF379001204B67A467BF379011236
:0E0BA30004B680FED083D082227F0802032594
:04000005000000C730
:00000001FF
